:10400000FC7F002015DB0000ED600000FD6000007B
:1040100000000000000000000000000000000000A0
:10402000000000000000000000000000FDDA0000B9
:104030000000000000000000FDDA000069DB000065
:10404000FDDA0000FDDA0000FDDA0000FDDA000014
:10405000FDDA0000FDDA0000F95B000001DB000082
:10406000FDDA000049DA0000FDDA0000FDDA0000A8
:10407000FDDA0000FDDA000059DA0000FDDA000088
:10408000FDDA0000FDDA0000FDDA0000FDDA0000D4
:1040900009D40000FDDA0000FDDA0000FDDA0000BE
:1040A000FDDA0000FDDA0000FDDA0000FDDA0000B4
:1040B0000000000010B5064C2378002B07D1054BFB
:1040C000002B02D0044800E000BF0123237010BD84
:1040D00060010020000000007812010008B5084BC4
:1040E000002B03D00748084900E000BF07480368D9
:1040F000002B03D0064B002B00D0984708BDC046CC
:104100000000000078120100640100205C01002022
:104110000000000008B5024801F006FA08BDC046DC
:10412000F0050020F7B5374F381C00F023FF0028BA
:10413000F9D03D1C1035281C03F0D2FF281C324951
:1041400003F0CEFE314E05240023F15E304B281CD7
:1041500000229A5E231C009402F03CFE0023F15ED4
:104160002B4B281C00229A5E231C009402F0E2FDD7
:10417000381C032102F024F8254F00280AD03A68A1
:104180003188013A3A6009B212B20094281C231C0B
:1041900002F0D0FD1B4C0021201C02F011F8002879
:1041A0000BD03A6831880132201C05233A60103068
:1041B00009B212B2009302F0BDFD201C022101F0F1
:1041C000FFFF00280BD031680023FA5E0131201C6C
:1041D00005233160103009B2009302F0ABFD201CC2
:1041E000012101F0EDFF00280BD031680023FA5EB9
:1041F0000139201C05233160103009B2009302F010
:1042000099FDF7BDF00500204A04000004000020DD
:1042100008000020031C007C0822104004D0D86A4B
:104220005B6AC01A00D501487047C046FFFFFF7F98
:1042300008B5103007F03AFD08BD08B5103007F09A
:1042400079FB08BD08B5103007F096FA08BD13B524
:104250006C4607341030211C012207F0CBF90128ED
:1042600001D1207801E00120404216BD08B58C2321
:10427000DB00C01808F0ADFC08BD08B58C23DB00DE
:10428000C01808F035FD08BD10B58C24E4000019F5
:1042900008F0EDFC10BD10B58C24E400001908F006
:1042A000A5FD10BD10B5034B041C036002F03CFDDE
:1042B000201C10BD4806010010B5041CFFF7F2FFDA
:1042C000201C0AF0D1FB201C10BD07B56B46D9712C
:1042D00007331030191C012207F0E8FC0EBD30B581
:1042E000051C8BB001A80A1C0024291C01230470A2
:1042F000447007F06EFB0BB030BD000001787022F7
:104300000023114202D0024B18600123181C704791
:104310008809002070B5031C0A1C1033103270CAC3
:1043200070C370CA70C370CA70C34B688C68CD68A4
:1043300043600B1C8460C56034331A78031C34332B
:104340001A700B1C35331A78031C35338E6B1A70B8
:10435000CB6B8663C3638B1CDA8F831CDA870B1DE0
:10436000DA8F4C6C896C031DDA874464816470BDFC
:1043700073B5041C3834051C201C03F0B7FE061C62
:10438000201C03F0C3FE2B1C00210096019010336B
:10439000201C0A1C02F0D4FB73BD38B509F0F8FBF1
:1043A000041C09F0F5FB4443012009F0ABFD051C9A
:1043B000022009F0A7FD684360400AF029FB38BDE0
:1043C00070470000F0B59FB001904F4E4F48504CE1
:1043D00035180291281C211C0392FFF780FF00284A
:1043E00008D111AB18705870291C181C221C01230D
:1043F00007F0BCFB45482122002308A96A440B7042
:1044000013700593FA27434B3618BF00301C4249FE
:1044100006970493FFF763FF041E25D111AD3D49B4
:1044200028746874139715AF3B4A12901191381C89
:10443000311C632307F0CDFA08AB07CF07C307CFC2
:1044400007C307CF07C3AB68129AED68211C08A801
:1044500005920693079507F0C1F9201C04A906F000
:1044600015FD08A807F0AEFAFA23002411AD9B0051
:104470002C746C7424491393244A264B15AE891866
:104480001193254A301C6323129407F0A2FA08AB5B
:1044900007CE07C307CE07C307CE07C3A868129B82
:1044A000ED68211C069008A80593079507F096F97A
:1044B00004A806F0E3FC0299431C039A019806F055
:1044C00081FC211C051C08A807F088F9691C11D182
:1044D000201C04A906F0DAFC01980299039A231C17
:1044E00006F070FC051C421C04D108A807F06AFA0B
:1044F000201C07E0281C04A906F0C8FC08A807F047
:1045000061FA01201FB0F0BD800100203C040000D2
:1045100058030100C80001005C03010010B5002130
:10452000041C383003F0A0FC2A23FF33E01801F00C
:10453000C1FD10BDF0B5071C34379BB0061C381CFC
:1045400008F046FFCF4B341C1B8838340B93CE4BFE
:10455000201C1B8800250C93CC4B1B880D93CC4B47
:104560001B880E93CB4B1B780F93CB4B1B78109370
:10457000CA4B1B681193CA4B1B781293C94B1B780B
:10458000139302F015FA03211590201C02F0E0F9B4
:10459000201C03F0D7FDC4491490201C03F0CCFD6F
:1045A000A22149007118081C069101F0BBFA069877
:1045B00001F0C0F9EAB20698049201F0AFFABB4BE1
:1045C000EB5C834206D2049B01350133DBB20493DA
:1045D000052DEFD1201CB64903F082FC20233422A4
:1045E0000093201CA023002102F026F9201CB149D1
:1045F00003F076FC02230093201C00213822AE4BEE
:1046000002F00EFC381C08F0F9FE00286FD0381CB0
:1046100008F0D8FE00286AD1201C002103F060FCBD
:104620001C2500210A1CA023201C009502F004F97F
:10463000201CA04903F054FC02230093201C0021FD
:1046400004229E4B02F0ECFB201C994903F048FC2D
:10465000201C03F04BFD0221031C2AB20091201CF8
:104660000021043502F0E8F8342DF1D15625201C44
:1046700003F04CFD85420CDA201C03F037FD0221CB
:10468000031C2AB20091201C002102F0D5F8043549
:10469000EDE700230221099301250A93059109F012
:1046A00071FA0A9A801A2828F9D9381C08F04AFEAB
:1046B00009F068FA0A90301C01F038FD099B069851
:1046C0000133099301F02EFA301C072101F080FD1F
:1046D000002819D1301C052101F07AFD002813D1E2
:1046E000301C062101F074FD00280DD136E0201C9D
:1046F0006F4903F0F5FB10230093201C32213C226C
:104700000A2302F099F887E7381C08F067FE5D4B32
:104710000B990C9A19805C4B0D991A805B4B0E9A81
:1047200019805B4B0F991A805A4B109A19705A4B8B
:1047300011991A70594B129A1960594B13991A70A2
:10474000584B1970201C159902F002F9201C14997D
:1047500003F0ECFCFFF734FE1BB0F0BD301C02216F
:10476000042201F047FD002804D005994BB2032B29
:1047700000DC0DE2301C0121042201F03BFD002889
:1047800004D0059A53B2002B00DD07E2059B5BB213
:104790000793042B00D95CE1181C0BF003FA050009
:1047A0004B00E900F3004401301C0321042201F016
:1047B00021FD002803D00499032900D8F4E1301C1E
:1047C0000021042201F016FD002803D0049A002ADB
:1047D00000D0EFE1301C042101F0FAFC002805D0E4
:1047E00004994B424B419B00049301E0002D0CD0F7
:1047F0002E4B049A0698995C01F068F9301CDC3065
:104800000421049A06F030FE012500230393069844
:1048100001F05AF90399814200D31AE1FF23009372
:104820001A1C0698039901F02CF9039B0133DBB2A3
:104830000393ECE7301C042101F0CAFC00285BD094
:10484000381C08F0BFFD00283AD0381C08F0B4FD31
:10485000321CDC320392101C0121002206F004FEFF
:10486000381C08F0CBFD01250890002844D1381CE5
:10487000062108F0B9FD03980899062206F0F4FD18
:104880003AE0C0466809002054090020640900206D
:10489000520900206009002018000020580900205B
:1048A0005009002061090020A8090100CA05010083
:1048B00068520000FFFF000094020100C5030100E0
:1048C000381C08F09BFD331CDC33051C0393381C9B
:1048D000002D08D008F06AFD012103980A1C06F09B
:1048E000C3FD012508E0062108F07EFD291C039880
:1048F000062206F0B9FD0125301C0321042201F037
:1049000079FC002821D0381C08F078FD07281CD835
:10491000381C08F057FD002800D151E1381C08F080
:104920004BFD301C0121DC30002206F09DFD381CBF
:10493000012108F059FD381C08F060FD021C301CF4
:10494000DC30002106F090FD0125301C00210422FE
:1049500001F050FC002876D0381C08F04FFD0028EC
:1049600071D0381C08F02EFD039000286BD130E187
:10497000301C042101F024FC00286AD0301CFFF711
:10498000CDFD66E0301C042101F022FC002860D03F
:10499000201CDF4903F0A4FA20230093201C60218F
:1049A000342202F0C7F91E230093201C6121352216
:1049B00016AD02F0BFF9D7490E22281C0BF019FAE8
:1049C000281C04210522FFF7FDFC002808D0422303
:1049D000301CAB7210305023291C2B7304F08CFA5E
:1049E00042210023FF317354984201D0CA4900E0AC
:1049F000CA49201C03F074FA20230093201C602174
:104A0000342202F097F91E2335220093201C6121E5
:104A100002F090F9C820400009F0ECF8422201258C
:104A2000FF32B55415E0301C042101F0D1FB002801
:104A300000D0E0E0301C0421192201F0D3FB002853
:104A400000D0D8E005E0002D03D0381C08F070FC41
:104A50000125099907230B40032B01DDB04900E034
:104A6000B049201C03F03CFA079A201C53019BB26A
:104A700019B2039320230093342202F05BF90399C7
:104A80001E220131009209B2201C35221E2302F0A1
:104A900051F9002D55D0201CA24903F021FA301CF9
:104AA0000121042201F0A6FB002813D0079D20233A
:104AB00001356D01ADB229B20093201C342202F001
:104AC00039F901351E22009229B2201C35221E23FD
:104AD00002F030F9301C0221042201F08BFB002887
:104AE00012D0079D2023013D6D01ADB229B2009384
:104AF000201C342202F01EF901351E2329B2009336
:104B0000201C352202F016F9079B012B00D06AE128
:104B1000381C08F073FC002800D142E1381C08F072
:104B200051FC002800D03CE1201C794903F0D8F961
:104B300002230093201C302138227B4B02F070F9B5
:104B40001BE00599002915D1049A002A1BD0201CCE
:104B50006F4903F0C5F904995422CB000399D21A86
:104B60001E311BB2009309B212B2201C022302F0C4
:104B7000E1F808E0079A012A05D1381C08F03EFC4C
:104B8000002800D01AE1069800F0D4FE002586E542
:104B9000059B01250133DBB20593EBE5059B012560
:104BA000013BDBB20593F1E5049B01250133DBB248
:104BB000049304E6049B0125013BDBB2049309E660
:104BC000381C08F01BFC411CC9B2381C08F00CFC56
:104BD000B1E6381C08F012FC411EC9B2381C08F0BE
:104BE00003FC381C08F00AFC021C301C0399DC3062
:104BF00006F03AFC29E7201C454903F071F920230F
:104C00000093201C8021342202F094F81E2300938C
:104C1000201C8121352216AD02F08CF83D490E2270
:104C2000281C0BF0E6F804210522281CFFF7CAFB1C
:104C3000192203900421301C01F0D4FA039A089041
:104C4000002A1ED0089B002B10D14223AB725023A8
:104C50002B73AC235B00FA20F15C80000AF0FAFFB2
:104C600003235843B0235B00F05204E00122B02339
:104C700052425B00F252301C103016A904F029F9A0
:104C8000039042250399FF350023735599426ED056
:104C9000264B01221A70089A002A5BD1201C1E495B
:104CA00003F01EF920230093201C8021342202F0FF
:104CB00041F81E23352200938121201C02F03AF88E
:104CC000C820400008F096FF42210123FF317354B1
:104CD000381C08F083FB164B0B9A0C991A80154B65
:104CE0000D9A1980144B0E991A80144B0F9A198043
:104CF000134B10991A70134B119A1970124B129989
:104D00001A60124B139A1970114B1A701AE5C046AB
:104D1000FFFF00006A03010068860000E4D800007D
:104D200068CC000068520000110101007C010020E5
:104D3000680900205409002064090020520900205D
:104D400060090020180000205809002050090020A8
:104D5000610900200A2008F04DFF301C01F0E6F93F
:104D6000301C042101F034FA0028F3D096E7201C0F
:104D70001F4903F0B5F820230093201C8021342222
:104D800001F0D8FF1E230093201C8121352201F061
:104D9000D1FFC820400008F02DFF012373551D1CD2
:104DA00057E6201C134903F09BF810230093201CA6
:104DB00032213C220A2301F03FFDDEE6201C0E4991
:104DC00003F08EF8381C08F019FB03998000542278
:104DD000121A1E3100B2009009B212B2201C022336
:104DE00001F0A8FFCFE6059B002B00D1ACE6CAE698
:104DF000E4D8000068520000FFFF0000F0B5B025C5
:104E00006D00435B8FB01AB2041C013201D0013B2C
:104E10004353201C072101F0DBF9002808D1635F10
:104E2000002B00D08BE0474B1B78002B00D186E095
:104E3000444A1378002B00D17EE0434B434A1B8841
:104E4000261C0293424B12881B8838360493414B30
:104E5000301C1B88039205933F4B251C1B7834356F
:104E600006933E4B1B7807933D4B1B6808933D4BC5
:104E70001B7809933C4B1B780A9301F099FD0321A1
:104E80000C90301C01F064FD301C03F05BF93749D5
:104E90000B90301C03F050F9281C08F099FA281CDC
:104EA00008F090FA0D90281C08F080FA221C1032AD
:104EB000101C2F49019203F06FF8A2235B00E71842
:104EC000381C00F02FFE381C00F034FD0198012141
:104ED00004F00AF81B4A0023201C1370FFF748FA5D
:104EE0000D9B194F002B02D1281C08F065FA281CD5
:104EF00008F074FA029A154B3A80039A301C1A8013
:104F0000049A134B0C991A80124B059A1A80124B73
:104F1000069A1A70114B079A1A70114B089A1A6068
:104F2000104B099A1A70104B0A9A1A7001F010FD72
:104F3000301C0B9903F0FAF8201CFFF7FBFA0FB0B6
:104F4000F0BDC0467C010020680900205409002003
:104F50006409002052090020600900201800002088
:104F6000580900205009002061090020A80901000B
:104F700098060100F0B5051C8DB0FC352E6E041CA2
:104F800008F000FEAC277F00E35D301AA026760013
:104F9000984204D9A05D0590002800D086E0A65D67
:104FA0000596002E7FD1201CFFF728FF2C21FF3112
:104FB000601805F0D1FD95225200A01805F000FC04
:104FC000201C343008F0BEF9201CFFF7D1F9231C57
:104FD0006C33181C049303F099F8C0B2079004983E
:104FE00003F084F8C0B206903C490AA808220AF0EF
:104FF00000FF059E0AAF07998E4227D2002506982A
:10500000EBB283421ED229B232B2049803F088FF79
:1050100005F015FF0102090E030409AA8C461B0EB8
:10502000107053709170DBB2C2B260460393C3B28A
:10503000795D0093A2235B00E018039B00F021FD43
:105040000135DCE70136F6B23F18D4E7244BA22243
:105050001B78251C5200FC35A618002B11D00AAB7A
:10506000A86B0A211F780AF0EBFD00230422181C0C
:105070008A4258414242D2B20093301C391C00F09F
:1050800000FD301C00F056FC301C00F04BFD08F019
:105090007FFD296C401AE86305F06CFB0122A02318
:1050A0009340E25417E00022059214E008F06AFDF4
:1050B000E35DC018AB6B28660133AB630023A355D7
:1050C00008F066FD2864201C01F030F82C23FF3323
:1050D000E01805F0EDFB05980DB0F0BDF8000100FB
:1050E0007C01002008B509484223FF33C35C002B34
:1050F0000BD0A0235B00C35C002B04D1031CFC334A
:105100001B6C002B01D0FFF735FF08BDF005002018
:10511000424B434A73B500259D54424A19219D5480
:10512000414A424C9D54424A01269954414A201C0E
:105130009D54414ADD711A6050212B1C0096019646
:105140004022103003F0F0FF201C1E211F223830B7
:1051500001F0A2F8201C2B1C0096019602210422CB
:105160006C3003F0E1FF231CA0331D70231CA1331E
:105170001D70231C94331D60FA22231C9200983367
:105180001A60211C2D4B90310B60211CC4310D7015
:10519000211CC5310D70211CD4310D60211CEC3156
:1051A0000D70211CED310D70211CE0310D60211CB2
:1051B000E4310A60221CDC321360231CFF335D746F
:1051C0009D74231CFC335D622C23FF33E55496232E
:1051D000B340E5542E23FF33E5549723B340E65400
:1051E0003023FF33E5549823B340E5544223FF3383
:1051F000E554A123B340E554A2235B00E018082145
:105200002622522300F026FCB0237242B340E25221
:10521000201C0B490B4A0AF07FFD73BD8001002062
:105220003C0400003D04000064040000F005002080
:105230006604000069040000E8000100C8000100E5
:10524000A952000000000020F0B58DB01E1C12AB6A
:105250001C7801230D1C00930193171C4E210A2278
:1052600003A803F061FF03A802F03AFF022103A89C
:10527000494200220B4B03F031FB4E206043391CA6
:105280000090321C0A206143624344432B6801941E
:105290009C6B281C03ABA04703A803F04FF80DB08C
:1052A000F0BDC046C5030100A2235B0010B5041C7D
:1052B000C01800F0D9FA201C6C3003F03FF8201C15
:1052C0003830FEF7EFFF201C103003F037F8201CB9
:1052D00010BD0000F0B58DB0041C204903A803F0F8
:1052E00009FF201CFFF746FE201C34301C49002219
:1052F00007F0D2FF1825201CFFF73CFE0028FAD04B
:10530000261C013D1036EFB2301C02F0E9FEFDB262
:10531000144A012369B213701A1C00230A2901DC04
:105320000A3FFBB2311C5BB20092201C0222261CF9
:10533000FFF78AFF6C360021301C0A1C03AB03F018
:1053400033FF002DD7D1301C02F0CAFE201CFFF71E
:1053500011FE03A802F0F2FF0DB0F0BD3E04010003
:105360002C04010060090020F0B5877E97B00797F4
:10537000878B65490497C78B644B08AD08311022B1
:10538000041C0126281C1E7005970AF032FD00231C
:105390002B745F485F4B291CC018FEF7A0FF0390D9
:1053A000002807D0201C009610300499059A2B1C69
:1053B00003F024FD0DA8584903F09CFE201CFFF7C4
:1053C000D9FD0028FAD0251C039F1035281C002F7A
:1053D00002D003F0C5FD22E002F082FE281C4F49F6
:1053E00002F07EFD494E092031780F2250234A43B6
:1053F0004B434143281C0091039901F0EBFC281C0E
:10540000474902F06DFD337811215800594302F0ED
:10541000B9FDB1235B00281CE11808F0EFFF414EF5
:105420000021331CFC339A6B07231340032B00D954
:105430003A49351C1035281C02F052FD281C02F098
:1054400055FE071C281C02F061FE002100900A1C7A
:10545000281C3B1CFC3601F06DFCB26B072313408B
:105460000DA8032B03D9012103F0AEFD02E00021BA
:1054700003F0AAFD2B4E351C1035281C02F036FE19
:10548000071C0DA802F032FE503F7B1E9F410137E2
:105490007843C0B202900DA802F038FE4743281CA2
:1054A000FFB2069702F022FE029BC71A281C02F0E8
:1054B0002DFEFFB239B2069F3369C21B029FD2B2E2
:1054C00038B2069F009038B201909F6B281C0DAB3C
:1054D000B847301C042100F073FE002800D16DE7AE
:1054E000201C343007F024FF0123201C009301937B
:1054F0000499059A079B103003F07EFD0DA802F079
:105500001DFF17B0F0BDC046F80001006009002083
:10551000800100203C0400002001010068CC000054
:10552000FFFF0000F0050020F0B5BC4BB1211A7858
:10553000041C490002209DB0824361181A70081CA7
:1055400002910922B6490AF054FC6C230027FF336C
:10555000E754AC2328225B00E254A0235B00012225
:10556000E2549923FF225B00E254A2235B00E3187C
:10557000181C039300F088F9039800F0D3FA201C5C
:1055800000F0C4FD201C00F0D1FD3A1C0521201CB8
:1055900000F030FE05900690201C3830251C103598
:1055A000049000F0D9FF0498032101F0D1F9281CE0
:1055B000391C02F059FC9B4E01213170281C9A497C
:1055C00002F08EFC337802220093201C131C291C4D
:1055D000FFF73AFE95493A1C281C02F0B7FC281C3C
:1055E00002F094FD0790281C02F094F93178079A94
:1055F0004143531A19B2381C02F0C4FC8C49281CD0
:1056000008F0EAFE201CFEF7B3FE8A4E8A4A8C237D
:10561000DB00F018B11802231A2207F045FA3A1CF1
:10562000B84221D0854BF01806F0CCF90121301C8E
:1056300007F0D0F8011EB94209D08048311C371854
:10564000381C05F0BDFF002800D1E4E005E0301C67
:1056500007F0C0F80028F0D1DDE0381CFEF74EFE60
:10566000002800D1D7E00122A1235B00E254281CCE
:10567000002A0DD1724902F069FC7249281C08F019
:10568000BDFE201CFEF774FE642008F0B3FA0AE0A9
:105690006D49002202F05AFC281C6C4908F0AEFE4D
:1056A000201CFEF765FE201C00F040FD0599002936
:1056B00005D1201C0521059A00F09CFD06900022D2
:1056C000281C594902F042FC281C002102F0CCFBA6
:1056D000584F5A4A0299BE18301CFEF700FE0028A7
:1056E00008D109AB18705870311C181C029A01239C
:1056F00006F03CFA002309AE33707370B1235B00EF
:10570000E35C2F2B0ED16423FF33E35C002B09D124
:105710004A4BFE18301C06F055F9301C391C05F0B8
:105720004FFF14E04548029A3F18391C301C0123F2
:1057300006F04FF900280AD0327870231A4206D0BA
:105740003B1C07CE07C307CE07C307CE07C3029A89
:105750003F4909A805F0AEFB201C09A99030261C82
:10576000FEF7D8FDDC363B4A3B4909A805F0A2FB11
:10577000271C09A9301CFEF7CDFD34372021301C31
:10578000364A062305F0B0FB381C07F0FFFE301C3C
:10579000012105F039FE002802D0381C07F006FE72
:1057A0000021301C05F030FEC1B2381C07F01CFE91
:1057B0000699002907D00121301C0A1C05F054FE6F
:1057C000381C07F0F3FD0321301C05F01DFE05F029
:1057D00069F80421301C05F017FE214B195C039871
:1057E00000F074F9049804F0D5FF1E4B1B78DA071B
:1057F00005D5201CFFF76EFD201CFFF7B5FD201C12
:10580000FEF7CBFD281C02F06BFC42230122FF3384
:10581000E2541DB0F0BD002226E7C0460010004053
:105820007803010060090020FFFF000068CC000041
:1058300085030100800100206C0400003C0400008E
:10584000E4D800009103010068860000990301007C
:105850009D030100B4030100A60301001003010031
:10586000CA0501003804004010B5041C80680028F7
:1058700001D00AF0A5FA06202056002802DB0021FC
:1058800008F0A4FC201C10BD10B5041C06202056F6
:10589000002807DB012108F099FC06202056002192
:1058A00008F0EEFC0123637010BD70B5041C806825
:1058B0000E1C002801D00AF083FA237BE57BED1A49
:1058C0006B1E9D4103357543ADB2A580281C0AF0BF
:1058D0006DFAA060002805D000212A1C0AF092FA77
:1058E000668001E0A080608070BD037B70B5C57BE1
:1058F0008C11ED1A6B425D410A1103238E101E407C
:105900001C401A400B4046738373FF2600238E42CF
:105910005B4103708368EDB2C4730273002B07D040
:10592000A21A53425341AB4202D04188FFF7BDFF58
:1059300070BD0000F8B58368041C002B00D168E03E
:1059400008F026F92369C01A3128F9D972B606235E
:10595000E35618275F432F4D0121EB195B68A6889A
:105960009940A3687D5D9E195A1C18782A4BED0159
:10597000EF182A4BED1880233960C046C046C04658
:10598000C046C046C046C046C046184215D0C046B4
:10599000C046C046C046C046C046C046C046C046D7
:1059A000C046C046C046C046C046C046C046C046C7
:1059B000C046C046C046296014E02960C046C046C3
:1059C000C046C046C046C046C046C046C046C046A7
:1059D000C046C046C046C046C046C046C046C04697
:1059E000C046C0465B0809D0C046C046C046C04657
:1059F000C046C046C046C046C046BDE762B672B6A5
:105A0000B24202D210780132B5E762B608F0C0F8AF
:105A10002061F8BD300D01001844004114440041DC
:105A200038B54378041C0D1C002B06D006202056E8
:105A3000002802DB002108F0C9FB6378A571002B68
:105A400007D0281C012108F0C1FB281C002108F008
:105A500017FC38BD70B5041C00200E1C6070191CAA
:105A6000E071A0602061201C151CFFF73EFF311C77
:105A7000201CFFF71AFF201C291CFFF7D1FF201C58
:105A800070BDF0B505AC257844888C421BD9C4792B
:105A9000002C05D0624363436543120A1B0A2D0A9A
:105AA000C47B077B8668A74203D103246143711836
:105AB00003E08900711800260E55047B0A55427BCD
:105AC0008B54837BCD54F0BD4088704770B50B1C60
:105AD0004D1CC179EDB2041C8D421BD00139866882
:105AE000C9B20020814208D0FF2B01D10A4801E051
:105AF000280201380AF0AEF880B2331C9A1BA18844
:105B000092B2914205D91A78424312121A700133A7
:105B1000F4E7E57170BDC046FFFF0000C0790138B1
:105B2000C0B2704708B50021828880680AF06AF91F
:105B300008BD0000094B1A68002A0BD1EFF3108151
:105B4000074A002904D172B6BFF35F8F012100E03C
:105B5000002111701A6801321A6070472008002075
:105B6000F0080020084B1A68002A0CD01A68013A85
:105B70001A601B68002B06D1044B1B78002B02D047
:105B8000BFF35F8F62B6704720080020F008002046
:105B900010B5FF23002103700323041C41708170A2
:105BA000C170017143710C2208300AF02BF9201CDE
:105BB00010BD000008B501220B1C134005D00D4B91
:105BC0001A700423437083680FE00222114204D04C
:105BD00008490A704370C36807E00423194207D0DC
:105BE000044A1370072343700369002B00D09847C1
:105BF00008BDC0464E48004110B5FFF79BFF0C4B57
:105C00000F211B8C0B400B2B0ED80A4A9800805892
:105C1000002809D0084A14788C4323431370074B9B
:105C20001978C9B2FFF7C6FFFFF79CFF10BDC04649
:105C300000480041F40800203F4800414E48004120
:105C4000F8B502780023051C181C0B2A75D92B7097
:105C50002B780B2B70D83B4E012231689A401142B1
:105C600000D06CE0FFF766FF3768374C002F2BD170
:105C7000364B20215A6936480A435A61DA691021A5
:105C80000A43DA6123880222934323802388012276
:105C9000134323802F4B6063391CA363C0220AF097
:105CA000B1F8391CC0222B480AF0ACF82A4B40222C
:105CB00023802A4B2A491A60C12292009858014039
:105CC000C0200004014399502B7801223168101C38
:105CD00098400143316023499800455022490F20E4
:105CE0000E780340864333430B70204B0220197813
:105CF00081431970197811431970297823698A40F2
:105D000093432361636C6022934363642A793F2346
:105D1000616C1A40164B12020B40134363646A799C
:105D20000323616C1A40134B92050B4013436364C9
:105D3000FFF718FF002000E0012040B2F8BD01335A
:105D400085E7C046240800200048004100040040C8
:105D50006007002030080020020F000000E100E092
:105D6000FFFF00FFF40800203F4800414048004189
:105D7000FFC0FFFFFFFF3FFF38B5041CFFF7DAFE4F
:105D800063780625AB4230D0227802250B2A2CD826
:105D9000A3780325002B28D016491301CB185B8864
:105DA000002B22D0A168E0684B1E9941CBB200289D
:105DB00001D002230B432069002801D004210B43AA
:105DC000062161700C490F200C7802408443224365
:105DD0000A700A4A0221137007229A43084B0025D1
:105DE0001A70084B1A780A431A70FFF7BBFE68B2A4
:105DF00038BDC046600700203F4800414D48004183
:105E00004C48004140480041023292001150704716
:105E100038B5041C217103780D1C0B2B15D8FFF726
:105E200089FE0A4A207814780F218C430840211CEF
:105E300001431170064B3F2215402A0205495D6C53
:105E40000D4015435D64FFF78DFE38BD3F480041AE
:105E500000480041FFC0FFFF38B5041C61710378A2
:105E60000D1C0B2B15D8FFF765FE0A4A2078147815
:105E70000F218C430840211C01431170064B032263
:105E80001540AA0505495D6C0D4015435D64FFF79B
:105E900069FE38BD3F48004100480041FFFF3FFF19
:105EA000F0B587B000930CAB1D780DAB1B78041CCC
:105EB00002930EAB1B780078039310AB049105920C
:105EC0001F780B2801D900208DE06378062BFAD0CB
:105ED000A378002B12D01020011C09F05BFF0028D2
:105EE000F1D02278414B12019A18131CD96800296D
:105EF00077D0D9688A4274D0DB68F7E73B4B000162
:105F000018180123A3709D4204D00422022D02D050
:105F10001A1C00E00222018806261943018001882C
:105F2000B1430180068818218E43068003210D406D
:105F300001882E028C462E4965462940351C0D43AA
:105F40000299058019408E022A4D01880D40311CAE
:105F50002943018005880399AC461940264DCE029D
:105F600061460D40311C294301803B4005881903DF
:105F7000224B009E2B400B43038003880F9D07217B
:105F80002940DB044903DB0C0B430380049DB3B2BF
:105F9000029E43804560002E08D0009B4168534319
:105FA000002F01D00F9DAB405B184360059E039D01
:105FB0008660002D0BD0009E7243002F04D10F9DF0
:105FC0008368AA40D21801E0866892198260E2785C
:105FD00000239A4203D02378044A1B01D318C360DC
:105FE00001E0D8608DE707B0F0BDC0466007002033
:105FF000FFFCFFFFFFFBFFFFFFF7FFFFFFEFFFFFD0
:1060000030B50D88039CAD05AD0F012D04D00420E3
:10601000022D02D0012000E00220002C01D0A4B209
:106020004C80002A14D04A600A88540510D50C8888
:106030000122240B144206D04A880D8842436D0B7E
:106040004C68AA4002E04A884C68424312194A60F0
:10605000002B14D08B600B881A0510D50A880123F9
:10606000120B1A4206D14C880A886043520B8B6887
:10607000904002E04A888B685043C018886030BD69
:106080008378C170002B12D00278094B12019A1844
:10609000131CD868002802D0D868824205D1481E57
:1060A000814149420A40DA6001E0DB68F1E770476C
:1060B0006007002008B5024B1B68984708BDC04622
:1060C000F43F000008B5064B1A68064B9A4202D806
:1060D000FFF7F0FF03E0044B081C1B68984708BD5E
:1060E000FC3F000001000100E83F000008B5024845
:1060F0000121FFF7E7FF08BD1907002008B5024896
:106100000221FFF7DFFF08BD1907002008B5064888
:1061100007F01AFC1920012108F058F81920012174
:1061200008F0AEF808BDC0467412002073B5002414
:106130006B465C711C711E49019A061C1D4800913A
:1061400007F02AFC1920211C08F09AF81023013BC3
:10615000FDD1184D0121281C07F054FC0121041C1D
:10616000192008F08DF8281C07F032FC331C00229F
:10617000211C0120114101420AD119880E4DA9426A
:1061800001D809180EE00D4DA9420CD118800AE083
:106190001988002907D00948814201D1002101E076
:1061A00001214942198001320233082AE0D173BD2E
:1061B000001BB70074120020FDFF0000FFFF00006D
:1061C0004900085A013843425841C0B270470000A4
:1061D0004900034B085AC01843425841C0B27047A7
:1061E0000100FFFF4900085A0132801A434258411A
:1061F000C0B2704708B54900012A07D8435A0B4A74
:10620000013B9BB200209A4240410AE0405A084BB1
:10621000984208D0111C09F013FD88B2013843429E
:106220005841C0B200E0002008BDC046FDFF00009C
:10623000FFFF0000024B1B68022BFBD97047C046D2
:106240000C000020054B1B68022B05D8044B802254
:10625000596C92040A435A647047C0460C000020EF
:1062600000480041064B1A6801321A601B68012B76
:1062700005D8044B8022596C92040A435A64704733
:106280000C0000200048004108B5011C014807F03F
:10629000B9FB08BD7412002070B50E1C151C8021BE
:1062A000A022041C01F090FE044BE6620833236038
:1062B00000232563201C237470BDC04640060100E6
:1062C00038B50121041CC06A07F080FF206B012152
:1062D00007F07CFFE26A18214A43124B124DD05658
:1062E000C0014019E061206B4143C856C00140190C
:1062F0002062981840680122151C8540E5625B18F1
:106300005B680A489A40226307F01EFB084B094A63
:10631000E16A1A6000221A715A71E3691A688A43A5
:106320001A6038BD300D0100104400417412002085
:106330003C09002000366E0173B50B1C174E316806
:106340000029FBD0164D174C52000092201C1A1C3D
:1063500029680023FFF754FEFFF7ECFB3368124A6D
:10636000013B3360167820780F218E430840311CA2
:106370000E4B01431170596C802292040A435A64F7
:106380000B4B1E78FFF7EEFB2B68B607DB68F60FAA
:106390002B6002D1201CFFF7EFFC73BD0C00002026
:1063A00038090020240900203F48004100480041EE
:1063B00040480041036A016B1A680A431A60C369C6
:1063C000C16A1A688A431A607047036A016B1A68C7
:1063D0008A431A60C369C16A1A688A431A6070479F
:1063E000C369C26A19680A431A60704770B50A4BDC
:1063F0000A4C051C0E1C201C06CB07F0CDFA281CED
:10640000FFF7E3FF301CFFF73FFF281CFFF7E8FF13
:10641000201C07F0DDFA70BD3C090020741200203A
:1064200008B54B424B412121C91AFFF7DFFF08BDD8
:1064300070B50A4B0A4C051C0E1C201C06CB07F03D
:10644000ABFA281CFFF7B6FF301CFFF71DFF281C16
:10645000FFF7C6FF201C07F0BBFA70BD3C09002007
:1064600074120020F7B5041C0F1C1E1C2A2108AB57
:106470001D780192FFF7BAFF201C0021FFF7D8FF1B
:10648000391C201CFFF7D4FF201C0021FFF7D0FF90
:10649000311C201CFFF7CCFF201C2B21FFF7A6FF8F
:1064A000201C0021FFF7C4FF201C0199FFF7C0FF4B
:1064B000201C0021FFF7BCFF291C201CFFF7B8FFA0
:1064C000201C2C21FFF792FFF7BD0000F0B585B02E
:1064D00000236A461E4F0E1C53731E491373051C7E
:1064E000039A381C0291741C07F056FA3678281C5F
:1064F000002E26D0FFF769FF2078FFF7C5FE6278EF
:106500007F23111C99431A40281C00910192FFF728
:1065100051FFA71C3C1C019ABB18D9B2E2B29142B0
:1065200004D02078FFF7B0FE0134F4E700991C1C7A
:10653000002903D01878013407F05CFB013EF6B265
:10654000D5E7FFF74DFF024807F042FA05B0F0BD6E
:1065500074120020001BB700F0B587B0041CFFF7D1
:10656000AFFE2B4B1B785A0603D4201C2949FFF79A
:10657000ADFF201C2849FFF7A9FF201C3621FFF79B
:1065800035FF201CC021FFF753FF244D0A21281C92
:10659000FFF73EFC281C0221FFF75EFC281C0121AE
:1065A0000024FFF76DFD0126281CFFF749FB211C85
:1065B000231C00940196029403940494281C184A06
:1065C000FFF76EFC174F182238600388211C134315
:1065D0000380134A231C00940196029403940494AC
:1065E000281CFFF75DFC78600388182213430380A2
:1065F0003A680D4B281C1A600C49321CFFF704FC4A
:10660000281C0B490222FFF7FFFB07B0F0BDC04674
:106610003804004038060100CF050100240900209D
:106620002818004244090020380900206562000053
:1066300045620000F0B587B002AF3D8D94466A0018
:106640000832D208D200041C6846801A854602AE81
:106650007B60FE60002290B2A84208D27B685000A6
:106660001E5A013276BA331CFE683352F3E766468F
:10667000F2B2C9B24B1E501C5B19C0B20090DBB223
:10668000201CFFF7EFFE0C4E0C4B301C06CB07F026
:1066900083F9201CFFF78EFEF9682A1C201CFFF7E7
:1066A0004BFEFFF7C7FD201CFFF79AFE301C07F0DA
:1066B0008FF9BD4605B0F0BD741200203C090020E2
:1066C00073B5041C00292ADB0C20235E8B4226DDD7
:1066D000002A24DB0E20235E934220DDD2B2C9B211
:1066E000501C4B1CC0B2DBB20090201CFFF7BAFE5E
:1066F0000B4D0C4B281C06CB07F04EF9201CFFF766
:1067000059FE094E3088000AFFF7BEFD3078FFF7CA
:10671000BBFD201CFFF764FE281C07F059F973BD70
:10672000741200203C09002064090020F0B5041C0C
:106730001D1C0C20235E85B08B4232DDE38918B22C
:1067400082422EDA5619864201DD9D1A2DB2D2B24E
:10675000CBB2511E4919C9B20091201C191CFFF778
:1067600081FE114B114E1F88301C3B0A0393104BC6
:10677000FFB206CB07F010F9201CFFF71BFEADB2ED
:10678000002D08D00398FFF77FFD013D381CFFF76F
:106790007BFDADB2F4E7201CFFF722FE301C07F0B2
:1067A00017F905B0F0BDC04664090020741200203E
:1067B0003C090020F0B51D1C8389041C18B285B06B
:1067C000814231DA0E27E65F96422DDD4E19864270
:1067D00001DD5D1A2DB2C9B24B1ED2B25B19DBB21C
:1067E0000092201CFFF73EFE104B114E1F88301CFC
:1067F0003B0A03930F4BFFB206CB07F0CDF8201CEA
:10680000FFF7D8FDADB2002D08D00398FFF73CFD8F
:10681000013D381CFFF738FDADB2F4E7201CFFF74F
:10682000DFFD301C07F0D4F805B0F0BD640900208E
:10683000741200203C090020F0B587B0041C0393BB
:106840000CAB00201E5EA08905B2A94244DAE389A0
:106850009C461BB29A423FDA039FCF19AF4202DD3A
:10686000401A05B203959019984202DD6746BE1A98
:1068700036B2D2B2C9B2501E039D4B1E8019C0B2AF
:106880005B19DBB20090201CFFF7ECFD134B1B885B
:106890001F0ADBB204970593114F124B381C06CB2D
:1068A00007F07AF8201CFFF785FD002E0EDD039D12
:1068B000002D08DD0498FFF7E7FC013D0598FFF780
:1068C000E3FC2DB2F4E7013E36B2EEE7201CFFF701
:1068D00087FD381C07F07CF807B0F0BD6409002084
:1068E000741200203C0900205343F0B5DC17A40FBC
:1068F000E3189B105B00C918144B92B21C689208F5
:1069000000239DB2954220D25D004D5B0F262F11D2
:1069100037407F003F5B01337FBA078047802F1CE1
:1069200037407F003F5B7FBA8780C7802F0B2D12D7
:106930002E407F0076003F5B355B7FBA6DBA0781E2
:1069400047818581C5811030DBE7F0BD1000002054
:1069500070B5041C0D1C3621FFF748FD6574032D2E
:1069600025D8281C8026A02509F012F9020A121A3F
:10697000201CC021FFF75CFDA023A681E38116E067
:10698000201CA021FFF754FD8023A581E3810EE0A8
:10699000201C0021FFF74CFDA023A681E38106E027
:1069A000201C6021FFF744FD8023A581E38170BD99
:1069B000407C704708B50548FFF7EAF8044B054AE4
:1069C0001A6000225A711A7108BDC04624090020BD
:1069D0003C09002000093D00F0B58FB002AF1C1C3F
:1069E000F862181CBA620E1C02F0BAFAA589E28994
:1069F000002D00D198E0002A00D195E0A37A012B68
:106A000000D08BE0F96A0C23C95E2BB279629942FF
:106A100000D083E0F96A0E23CB5E11B279618B421C
:106A200000D07BE06E463E617E6A694673000833A3
:106A3000DB08DB00C91A8D46C91A02AE013A8D4641
:106A4000BE62D2B202AEFE61002100926B1EDBB2CA
:106A5000F86A0A1CFFF706FD354B364806CB06F0F0
:106A60009BFFADB2F86AFFF7A5FC0026BD61AD083B
:106A7000FD607E607D687E69B54244DA7B6A7D6830
:106A800026696B43DA17920FD3189B105B00F3183B
:106A90003B62294B00221968BB6AFD6890B2A8428C
:106AA0001FD23D6A5000285A0F2506112E40AC46D1
:106AB00075006D5A66466DBA1D80654605406D00CD
:106AC0006D5A01326DBA5D80050B001230406D00C9
:106AD00040006D5A405A6DBA40BA9D80D880083344
:106AE000DBE7F86AB96ABA69FFF726FC134B1B6843
:106AF000012BFBD97E68BB6A0136B6B27E60FE69A7
:106B0000FB61BE62B6E7FFF795FBF86AFFF768FC2A
:106B1000084806F05DFF3D69AD4605E0F86A311CA6
:106B2000BA6A231C00F000FEBD460DB0F0BDC046A1
:106B30003C09002074120020100000200C000020EE
:106B4000F0B58FB002AF041C4820F961C05FBA6194
:106B5000F8624C22181CBB62D65F02F001FAA389CE
:106B6000FD6918B27B60854200DDD3E0FD6AE9175C
:106B70006A18FD694A40D54200D5CBE0E189BD697C
:106B80008C4609B28D4200DDC4E0F317F2185A407A
:106B9000D54200D5BEE0FD6A002D00D1BAE0002E3E
:106BA00000D1B7E0BA6A9589D289002D00D1B1E051
:106BB000002A00D1AEE02BB2FD6A7B62AB420AD163
:106BC00015B2B54207D12368201C5D6BF969BA691B
:106BD000BB6AA8479EE07B6A5D00FB6AAB4200D0BF
:106BE0008FE015B27D616A00964200D089E098423C
:106BF00000D086E0B14200D083E06D463D617D6A01
:106C00006846AA000832D208D200801A8546801A47
:106C10007B68624602AD854602A9013A3962D2B26A
:106C20000021013BDBB20092201C0A1CFFF71AFC7A
:106C30003A4B3B4806CB06F0AFFE201CFFF7BAFBF1
:106C4000BA6A937A002B37D11E1C7A69964228DAE9
:106C50007B6A7343FB620023796A8B420DDAF86A20
:106C60009A00C118B86A490000690133095AA81886
:106C700049BA41809BB2A952EEE7A289201C291C87
:106C8000FFF75AFBA289201C291CFFF755FB254B57
:106C90001B68002BFBD02B1C01363D6AB6B23B6251
:106CA000D3E7FFF7C7FA201CFFF79AFB1C4806F052
:106CB0008FFE3D69AD462DE0012B20D1002679697C
:106CC0008E42EEDAB86A7A6A0069331CB860B96835
:106CD000281CFFF709FEA289201C291CFFF72CFBAA
:106CE000A289201C291CFFF727FB0E4B1B68002BD9
:106CF000FBD02B1C01363D6AB6B23B62DFE73D6933
:106D0000AD46FD6A01960095201CF969BA69BB6A17
:106D100000F0C0F9BD460DB0F0BDC0463C090020F2
:106D2000741200200C000020014B083303607047F0
:106D300050090100F7B51F1C08AB151C0E1C0022E2
:106D4000995E03680191196A041C2A1C8C463B1C3D
:106D5000311CE0472368019A196A013A52198C469E
:106D6000201C311C3B1C12B2E0472368201CDA694E
:106D7000311C9446019B2A1CE047013F2368BE1941
:106D800031B2DF692A1C201C019BB847F7BD37B51B
:106D90000C1C002B04DA0132D2185B4212B21BB277
:106DA000D318013B01681BB200938D69231C211C81
:106DB000A84737BD13B5002B04DA0131C9185B426F
:106DC00009B21BB20468CB180092013B1BB2A46944
:106DD000A04713BDF7B5009308AB0D1C171C00228C
:106DE000995E061C01912C1C009AAB189C420ADA91
:106DF0003368301CD9693A1C8C46019B211C013434
:106E0000E04724B2F0E7F7BD13B50C21435E0E2432
:106E1000015F026800910021946A0A1CA04713BD1B
:106E2000F0B58FB01C1C14AB1B78051C5BB20A912B
:106E300005920893012B03D103681E6C231CB047F5
:106E400022780898D11DC908099107210A40C0B2CB
:106E50000821891A4243C9B2A31C64780C91D2B2AA
:106E600000210B9407900D920691069A0B9882428E
:106E70003DD000210A9C0493039103980999049B37
:106E800088422AD2039B049A0133DBB2177803931A
:106E90000026039B0998834206D10C998E4203D1A8
:106EA0000D9A141964B214E07BB2002B08DA089B27
:106EB0002A680093906A211C8446059A281CE047A2
:106EC000079901367F000C19F6B2FFB264B2082EA2
:106ED000DFD1049A01320492CFE70599079842184E
:106EE00052B20592069A0132D2B20692BDE70FB0B5
:106EF000F0BD0000F0B5594A87B012680B1C002A9B
:106F00004CD10A2918D1564B564D1978564B2D782D
:106F10001B785943554B1C880C19A4B21C80002DBA
:106F200006D024B261180E24005F814200DB1A8073
:106F30004F4B00221A808DE00D2900D18AE049498B
:106F4000474C0978494E002916D02778484D0597B7
:106F50000027E95F474F8C463F7805994F43BC4473
:106F60000C21475EBC4507DD2A803F4A059912780F
:106F700051433288891831803D4D0022A95E002797
:106F8000F25F267800960768FE6CB047394B1A7896
:106F9000237853432A889B182B805BE00A290BD166
:106FA000334B00211980917A2D4A304B12784A4395
:106FB000198852181A804DE00D294BD0157AA94234
:106FC00048D3517A994245D35D1B5168EDB2ED002B
:106FD0006D18AC78E9780494049F214E244C002F5E
:106FE00032D0002930D069798C461E4909780029B1
:106FF0001CD0377803970027E15F0591614649B2BD
:107000008C4604990F1C039967444F430599C9198D
:107010008C460C21475EBC4508DB927A0399002719
:1070200051432780114F3A88891839800F4F002229
:10703000A15E3A1C0027D25F377805920097076857
:10704000FA6C9446059AE0472A79337853432288AC
:107050009B182380012007B0F0BDC0465C090020CA
:107060006009002018000020610900205409002058
:1070700068090020500900207047000010B5044B3B
:10708000041C0833036007F0EFFC201C10BDC04651
:1070900050090100F0B59BB002AFB8657820F965E2
:1070A000C65F7C21181C7A651C1CCD5F01F058FF5F
:1070B000BA6DFB6D928910B27A64834200DD98E16B
:1070C000F11772184A40D34200D592E1BB6DDB89BB
:1070D00019B29C467B6D39658B4200DD89E1E91769
:1070E0006B184B40796DD94200D582E1002E00D15A
:1070F0007FE1002D00D17CE1A1893962E1897963CA
:10710000396A09B2B964B1420CD1796B09B2A942AA
:1071100008D1BD6DB86D2B68F96D5D6B7A6D231C60
:10712000A84766E1F60FFE6016B2ED0FFE63FE6D36
:10713000BD601DB2FD62002E07DAB1B24842891867
:1071400080B20DB23864FD640FE0FE6DFD6B721904
:10715000824206DD786C811B0DB20026FD643E6420
:1071600003E0FD6B0026FD643E647D6D002D07DAB3
:10717000AAB25142D31889B21EB239653E6310E0FB
:107180007D6DFE6A386DAB19834206DD61464B1B8F
:107190001DB200263D633E6503E0FD6A00263D63A7
:1071A0003E65BD6DAB7A002B00D096E0FE6B6D4660
:1071B00073000833DB08DB00E81A85462689A37ACA
:1071C000BD6202ADBD637E62012B0AD1627A002AE4
:1071D00006D0894B227A1B685200D35A238100E0E3
:1071E0002381BB6C00250133DA0FD3185B10BB6120
:1071F0007D647D6C3E6B2BB2B34269DA3D6D7E6B74
:1072000028B21B1832B2181C5043F96A08F022FD4C
:10721000BE6880B2002E03D07B6B013B181A80B28F
:10722000BE69BD6C46434543734B7E611B68BE6BB4
:10723000FD613B610025F86C2BB283422FDA396C7B
:10724000BA6C08B228185043F96B08F003FDFB68CC
:1072500080B2002B03D03B6A013B181A80B2A17A9E
:107260003960002906D1FA69216910184000435A93
:10727000338011E03A68012A0ED121697A69430806
:107280008918CB5C3968084200D11B090F221340D2
:107290003A695B009B5A338001350236CBE77E6C3E
:1072A000F86DB5B2BE6D33683E6C31183E6D786DC9
:1072B00009B23218FE6CAA18B0B2009001940135E0
:1072C0005E6912B2B86DBB6BADB2B0477D6490E73A
:1072D0007D6A2581BE6AB5468BE0012B00D088E02F
:1072E000A37A6D46FD61002B02D1FE69B54680E0B0
:1072F000FB6B3E6C0833DB08DB00E81A854602AD09
:10730000BD62BB6CBD6C36B201337543DA0FD31866
:107310005B107E620026BB613D617E647D6C3E6BCE
:107320002BB2B342E1DA3E6D7D6B30B21B182AB24C
:10733000181C5043F96A08F08DFCBD6880B2002D1E
:1073400003D07B6B013B181A80B2BE693D6946438E
:10735000BD63BD6A7E610026F86C33B283422FDACA
:10736000F96BB86B08F076FCF96880B2002903D09D
:107370003B6A013B181A80B2420823697969944636
:107380005A186346D25CC10700D41209786A0F23E9
:107390008446F86D1A408444B44460462978C00796
:1073A00004D599430A432A70013503E012010B40CA
:1073B00013432B70B96BBA6C01368918B963CBE7EC
:1073C0007E6CF86DB5B2BE6D33683E6C31183E6DA3
:1073D000786D09B23218FE6CAA18B0B20090019410
:1073E00001355E6912B2B86DBB6AADB2B0477D645B
:1073F00094E7BD4619B0F0BD1000002070B504AC94
:1074000025785B004C1C0978C318984211D0002DD8
:1074100007D00F2631404900895A01802178013474
:1074200003E00E117600B65A068001267540023040
:10743000EBE770BDF0B5244B85B01D680023590003
:10744000695ADAB281423BD00133102BF7D1C30025
:10745000DBB2C2100193FC231A40001207239843A9
:1074600002920023194A03901C1C5900695AFC26F9
:10747000CF103E40029FD8B2BF1BFE17BF19774006
:10748000009707260F12B743039EF71BFE17BF197D
:107490007740009EF619CF000199FFB2CF1BB4468A
:1074A000FE17BF1977406146CE19B6B2964201D396
:1074B000161C201C0133102B03D0041C321CD4E7F3
:1074C000101C05B0F0BDC04610000020FFFF0000FA
:1074D00008B50368DB6A984708BD0000F0B593B0B3
:1074E00002AFB863FA6158205C227961D25FC05F55
:1074F000602564217863BA62ED5FC95FBE6EFD628C
:107500003961B27A012A5FD1BC6BA17A002900D01F
:1075100088E03589BD61717A002906D0814A317AC7
:10752000126849008A5A328100E032810133DA0F51
:10753000BC6AD3185B106400FD6A1A1CFC607C6B8B
:107540006A437B62E30F1B195B10D318FB630024B3
:107550003D69AC4235DAFB6868460833DB08DB007E
:10756000C11A8D463269796BFB6BB860B86A02AD9F
:107570003D6285B288B2D1186A4B38631A6801231C
:1075800003400093386A2B1CFFF738FFB86B396B48
:10759000036878690A1811B2FA6A9446FA69009584
:1075A00094446046019602195D69B86B12B23B6A59
:1075B000A847BD68786AAD46FD6B01342D18FD63A0
:1075C000C6E7BC693481A9E0002A00D0A6E0BD6B03
:1075D000AC7A002C00D0A1E05D00FD63FD6A786B01
:1075E0005D432D186D003B699C4200DB96E0B96B52
:1075F0007A6B7B690868D1180AB23A63FB6AFA6948
:1076000099180A19316912B24B19B96A019689B2EF
:1076100000914169B86B8C46396BE047FA6B0134D5
:10762000AD18E0E7012979D10133DA0FD3185B10E7
:107630003B62BB6AFC6A0133DA0FD3185B10BB6193
:107640000133BB603B6A7D6B6343EA0F52195210F2
:107650009A183A632A1C0132D10F8A1852109A18CC
:1076600000247A62FC63FC6B3D69AC4256DA7D69AA
:107670003469A9B2C80732D5BB686D46FD600733CF
:107680007D6ADB086A466419DB00D01A221C854635
:10769000013A10787C6002AB0022BD69954209DB9B
:1076A0007C680001A55C2C11204398540132D2B2B1
:1076B000281CF2E7BC6B7D6B20684919FC6AFD69E8
:1076C00009B26219FC6BBD6A1219ACB20094019642
:1076D000446912B2B86BA047FC68A54613E0BD6BC5
:1076E000FB6928687D6B4919FD6A09B2EA18FD6BD0
:1076F00052193D6B12B26319BD6A0196ACB2009487
:107700004569B86BA847FC6B3D6B0134FC633C6A70
:107710002D193D637D6A2D197D62A4E7BD4611B028
:10772000F0BDC04610000020F0B58FB00A90181CC4
:107730001E1C0D1C141C01F013FC0A9FB189B88992
:10774000F38907B2BD4256DC0AB20B925219944635
:1077500051D40A9AD289099212B20C9294424ADC0C
:107760001AB212190D9246D4002D11DAAAB294461B
:107770006144524292B289B207920A1C69460A8455
:1077800011B2B94201DD6A4610846F46398C08E0B7
:10779000BC4504DD411B002089B2079001E00022B6
:1077A0000792002C0DDAA0B24742C01880B2BFB2D7
:1077B000BC46031C07B20C9887420ADD099A131CC9
:1077C00007E00D980C9A0027BC46904202DD099F05
:1077D0003B1B9BB2079809B20191614602B20FB2FE
:1077E0001BB200920393029704960A98291C221C4C
:1077F0000B9BFFF773FE0FB0F0BDF0B58DB0099392
:1078000012AB0C1C051C0021585E13AB0792002222
:107810009E5E14AB089000201F5E15AB0022995E9F
:1078200009980B9101F09CFB099B9989DA89002F3B
:107830006DD000296BD00C202B5E9C4267DC08B217
:107840000A90C44263D40E20295E8C460799614594
:107850005DDC12B2D1425AD4089931430DD10A9855
:10786000B8420AD10B998A4207D12B68281C5E6B5B
:10787000211C079A099BB04749E00A980899401AC9
:107880000690874200DD071C0B98921B824200DDA8
:10789000021C002C0BDAA1B20898CF19401A39B299
:1078A0000B900F1C00B2994207DD1F1C05E03FB290
:1078B000E1190898994201DD1F1B3FB20899641A2B
:1078C00021B2079C002C0ADAA3B29A18F41A12B259
:1078D00024B2131C624500DD63461BB20AE0079C1C
:1078E00013B2E218341C624504DD079C6246131B88
:1078F0001BB2341C079A0294099C961B00900393B8
:1079000032B201970494281C0A9BFFF7E7FD0DB0E3
:10791000F0BD0000014B18787047C0466109002097
:1079200008B503681B69984708BD0000F0B587B02B
:107930001E1C0CAB049000201B5E0C1C991A151C1D
:10794000CA1789185140321BD01712184240914271
:1079500008DD321C01211E1C131C221C01912C1C51
:10796000151C01E000220192B44205DD2A1C1D1CF9
:10797000131C221C341C161C321B92B202925A1B7E
:10798000D117501848400590029802B2D70FBF187F
:107990007F10BFB29D4202DA0121039119E0124A21
:1079A000039216E0019B0498002B15D0291C221C81
:1079B000FFF7B6FF05983F1ABBB29FB23AB2002A52
:1079C00005DA0399029A6D189F182DB2BFB20134DF
:1079D00024B2B442E6DD04E0211C2A1CFFF7A0FF1C
:1079E000E8E707B0F0BDC046FFFF0000F0B58BB080
:1079F000099119780890C81DC0080390072001401C
:107A00000491141C04989A1C5B780821091AE31845
:107A1000C9B2DBB206910793079843B29C4237D0B4
:107A20000999161C02910027039B321C9F422CD2FD
:107A300031787B1C0191DFB20025029AEBB2D2B201
:107A4000039899180592009349B2874206D1069A85
:107A5000934203D1049B591849B213E0019843B2F1
:107A6000002B03DA0898221CFFF75AFF0199009AAD
:107A70004B000599DBB2013151180135019349B230
:107A8000082DDAD101360291CEE7013464B2C3E7A2
:107A90000BB0F0BDF0B58BB00491059211A910AAFE
:107AA000097812780191071C114305D102680499E5
:107AB000146C059AA04768E01C7858780233069346
:107AC000E31DDB10079303231A4000900392002567
:107AD000EAB253B20292A34257DADA17520FD2181F
:107AE000D210D2B208922A4A134004D50822013B90
:107AF0005242134301335BB280221A41099200269D
:107B0000F2B2009953B28B423DDA079908984B4381
:107B100041B20698C3185B5C0999194231D0039BA6
:107B2000022B08D0032B0ED0012B12D1631E5B1B3E
:107B3000111CDAB20EE0009A611E013A491B921B39
:107B4000C9B2D2B206E00099029A0139891BC9B2C2
:107B500000E00299019800280AD0C00702D5631EF0
:107B6000591AC9B2019B9B0702D50098821AD2B25A
:107B70000598049B1218C91849B252B2381CFFF775
:107B8000CFFE0136BCE70135A2E70BB0F0BDC04621
:107B900007000080F0B593B01E1C18AB1C788E4B0C
:107BA000051C1B6804910592002B00D09BE00C2063
:107BB0002B5E8B4200DC0DE10E216B5E934200DCFC
:107BC00008E1864B049A1B786343D318002B00DC32
:107BD00000E1834B05981B786343C318002B00DC3E
:107BE000F8E0804B1B78002B03D1AF2E01D9013672
:107BF000F6B273B2002B01DA203EF6B200210691F4
:107C0000764A0698127843B2934200DBE2E0013AEA
:107C1000934206D0744972430968C918895C03917C
:107C200001E0002203929BB2099363430498002170
:107C300080B2C3189BB208900A930791079B5AB26F
:107C4000674B1B789A4249DA039BDB0719D5012C55
:107C50000AD10998089BC118059809B2121812B2E6
:107C6000281CFFF75DFE31E00A9B624319B2059BB9
:107C70002868D21823B20093876A12B2281CB8472A
:107C800024E05A4B19885A4B1F88B9421ED01980DC
:107C9000012C0AD10998089BC118059809B212183D
:107CA00012B2281CFFF73CFE0EE062430A99059BC6
:107CB00009B20B91D218296823B20093886A12B2D4
:107CC00084460B99281CE047494B1F80079B039A69
:107CD00001335208DBB203920793AFE7069B0133EF
:107CE000DBB206938CE71A7A5968B61AF6B21B68AB
:107CF000F60076183288F07871790E93B378B679F9
:107D0000039208930F9009910A96012C04D973B23B
:107D10004FB29BB2BFB20D936743049A002692B252
:107D2000D719BFB20C92109704960F9AF3B29342F0
:107D300050D2059B0D989BB20B93331863430B995C
:107D4000109ACB189BB21193079200270498FBB2AC
:107D500008991A18D2B28B4236D2530707D1039B27
:107D600003990E980133405C9BB2069003930699E9
:107D700009061ED5012C0FD1099A0C9B0A9851B205
:107D800059180B9B42B29A187918B21809B212B25C
:107D9000281CFFF7C5FD0CE0119A079812B2029259
:107DA00023B22A68009301B2906A029A8446281C82
:107DB000E047069807994300DBB206930B199BB284
:107DC00001370793BFB2C1E74318DBB20136049312
:107DD000B6B2AAE713B0F0BD5C090020500900203C
:107DE000610900206609002058090020520900207E
:107DF0006409002008B5837A012B07D1074B0F22B5
:107E00001140188859700901197005E0044B4900A8
:107E10001B68C95A00F014F808BDC0466409002068
:107E20001000002038B5041CFFF7E4FF051C201CDF
:107E3000FFF74EFB014B1D8038BDC0466409002092
:107E400010B5837A041C012B07D1081CFFF7F2FA46
:107E5000011C201CFFF7CEFF02E0024B188819809E
:107E600010BDC0466409002038B5041CFFF7E8FFC8
:107E7000051C201CFFF72CFB014B1D8038BDC046A4
:107E800064090020F8B50F1C191C161C041CFFF710
:107E9000D7FF391C051C321C201CFFF741FD014B8C
:107EA0001D80F8BD6409002008B5837A012B09D133
:107EB0000F231940074B5970090119701A88064B96
:107EC0001A8005E0054B49001B68C95A00F008F804
:107ED00008BDC0466409002052090020100000209F
:107EE00010B5837A041C012B07D1081CFFF7A2FAF6
:107EF000011C201CFFF7D8FF03E0024B1980024B46
:107F0000198010BD520900206409002008B5837A49
:107F1000012B0BD10F2319401A400948094B41701E
:107F20005A700901120101701A7007E0064B4900EE
:107F30001B685200C95AD25A00F008F808BDC04662
:107F400064090020520900201000002070B5837AD7
:107F5000051C141C012B0CD1081CFFF76BFA061C26
:107F6000201CFFF767FA311C021C281CFFF7CEFF0C
:107F700003E0024B1980024B1A8070BD6409002097
:107F800052090020024B1880024B19807047C046EE
:107F90006809002054090020074B084A1960087836
:107FA000013010704878064A023119600130054BE3
:107FB000107001221A7070475809002050090020E3
:107FC00061090020660900200F4B70B5083303607B
:107FD0000E4B00251D800E4B45601D800D4BC28150
:107FE000012681810C49041C1E70FFF779FF0B4BA1
:107FF000A5721E700A4B201C1D700A4B0A491D6099
:10800000FFF7CAFF201C70BD50090100680900205D
:108010005409002060090020FFFF00001800002024
:10802000660900205C09002098060100074A08B58F
:1080300000231380064A07491380FFF7ADFF064A65
:1080400001231370054A137008BDC046680900205B
:108050005409002098060100600900201800002043
:1080600038B5837A041C0D1C012B07D1081CFFF7BF
:10807000E1F9011C201C00F00DF809E0ED43FFF7C9
:10808000F3FE201CA9B2FFF72BFF201CFFF7CEFF49
:1080900038BD000030B585B0041C0D1C68460E4983
:1080A000102207F0A6FEA37A002B07D10B4B6D0020
:1080B0001B68201CE95AFFF7D3FF0BE0201C291C8A
:1080C000FFF7B0FE6B46201C595DFFF7EDFE201C4C
:1080D000FFF7ACFF05B030BD3A09010010000020E9
:1080E00008B50021FFF7BCFF08BD00004223064A87
:1080F000FF33D35C002B04D10C23C25E5023002A33
:1081000000D0838918B27047F00500204223064A48
:10811000FF33D35C002B04D10E23C25E4023002A20
:1081200000D0C38918B27047F0050020014B1960D8
:108130007047C04610000020014B19607047C046D0
:1081400010000020014B18687047C0461000002046
:10815000054B826808330360002A03D043681A6124
:108160008289DA837047C046080A010008B50368AF
:108170000021DB68984708BD084B8268083310B5BA
:10818000041C0360002A03D043681A610022DA83CA
:10819000201CFFF7DDFF201C10BDC046E8090100D0
:1081A000084B8268083310B5041C0360002A03D012
:1081B00043681A618289DA83201CFFF7DDFF201CE7
:1081C00010BDC046C8090100F0B5CC1883B0002C22
:1081D0003BDD0C26845FA14237DA002A35DB0E270F
:1081E000C65F964231DD867A002E30D1002B43DB0C
:1081F000CF43FF170F403DB2491BCB18BFB2611BE5
:10820000A4468B4200DD0B1CEB18FE0727D4066941
:108210001D49644654431D4D1C1964190D886400A2
:108220007F105B08A5539F420FD20C24005F098882
:1082300040104243BF189A18BF0092000804F31977
:10824000B218014302C39342FCD103B0F0BD0468ED
:10825000013B5B1800921BB2A469A047F5E75443A9
:1082600009492D1906690C886D00AC530C25445F33
:108270000137A446BFB2CCE75D1C6918DD175B1956
:108280006B4009B21BB2B3E764090020FFFFFF7F18
:1082900070B50469002C32D0002930DB002A2EDBB7
:1082A0000C23C55EA9422ADA0E26835F934226DD9F
:1082B000807A002806D16A43114B89181888490032
:1082C00008531CE001281AD10135EE0F75196D1005
:1082D0006A43CB0F5B185B109B189BB2E318084DE9
:1082E0000F241A78014205D114401C702A781443D7
:1082F0001C7004E0A2431A7069780A431A7070BDBA
:108300006409002010B5041CFFF722FF201C06F0B2
:10831000ABFB201C10BD10B5041CFFF72DFF201C6B
:1083200006F0A2FB201C10BD10B5041CFFF738FF9F
:10833000201C06F099FB201C10BD000038B50E4B28
:10834000041C08330360431CDD7F002D0ED100693F
:10835000002805D0094B984202D907F031FD25616C
:10836000A069002802D003685B689847201CFEF7CC
:10837000DBFC201C38BDC046280A0100FFFFFF1FA0
:1083800010B5041CFFF7DAFF201C06F06DFB201C63
:1083900010BD0000F0B589B000AF3C8FFB61BC613F
:1083A0006C46BC60857A0C23C45E0369012D00D045
:1083B00080E00134E00F041964106243CE0F761898
:1083C000761092199C18FA6B2940537A002B1FD112
:1083D00000290ED0FD69227829780F239A430B409B
:1083E00013432370BB690135013B9BB20134BB6170
:1083F000FD61B869F96945082A1C201C07F0F9FCE1
:10840000B969C90700D463E2FB6964195A5D4AE09F
:10841000002913D0FD69F9692B78FD6B0F22287AAA
:1084200001311340984203D02078904303432370D6
:10843000BB690134013B9BB2BB61F961BD6900239B
:108440006E089AB2FD69B24220D2EA5CFD6B10114F
:1084500038612D7AC0B284460F21101C08407D611E
:10846000AC4506D160450FD0E25C8A431043E0542E
:108470000AE07D69A84206D1E25C38691140050135
:108480000D43E55400E0E2540133DAE7AB19BD696E
:10849000A419ED0700D41BE21A78FB6B197A1309B3
:1084A000994200D114E221780F239A430B401343E1
:1084B00023700DE2B9480578FF2D2BD1B848068806
:1084C000B848864226D1FD6BAD682802000A02D06A
:1084D000B54DA8420AD1201C5043BC690818400081
:1084E00018186200F96907F084FCF1E16243891809
:1084F00049005B180020BC69A04200D3E8E1FC6998
:10850000F96B4500665B0A89B24200D05E530130C8
:10851000C0B2F0E76243891849005B18FB60BB6991
:1085200068460733DB08DB00C01A8546C01A6E4672
:108530008546C01A6A4685466C467A613C610023CE
:10854000BC69A34217D2FA6B11895A00002903D0E3
:10855000FC69A05A88420BD0FC691F21A25A3C69D1
:108560001140F1545105890EE1547969D20ACA5477
:108570000133DBB2E4E78A4B18888A4B98420CD16E
:108580008A4B1878042800D9C9E0002307F00AFBB9
:1085900035007A00C4000101430141051F23034057
:1085A000890E9C463960C00A0023BC69A342E7D209
:1085B000F96B0A89002A04D0F9695C00645A944274
:1085C00018D0F25664466243D417E40E3969A218F3
:1085D00052113C68F254CA566243D417A40EA21832
:1085E0009211CA547969CA564243D417E40EA218AC
:1085F0005211CA540133DBB2D7E7FF2D00D18EE010
:10860000BC69A34200D38AE0FA6B11895A000029A1
:1086100003D0FC69A05A884226D0FC681F20A15ACA
:10862000F456EA43D2B208406C4350432018C417B2
:10863000240E20180012F0543869C4564805800EE4
:108640006C4350432018C417240E20183C690012B4
:10865000E0547C69C90AE056514368434018C11789
:10866000090E08180012E0540133DBB2C8E7FA6BB8
:1086700011895A00002909D0FC69A05A884205D105
:108680000133DBB2BC69A342F1D348E0F968F0568C
:108690008C5A6843E20A6105890E94461F223960AC
:1086A0001440FF214C430019414CA04204DCC21786
:1086B000120E12181212D2B23969F254CA5639681F
:1086C000FF206A4341433B4851183F22814204DC6A
:1086D000CA17120E52181212D2B239696046CA5421
:1086E0007969CA56FF2141436A4352181F21A242A9
:1086F00004DCD117090E89180912C9B27A69D1545C
:10870000BEE7FA6B11895A0000290AD0FC69A05A09
:10871000884206D10133DBB2BC69A342F1D3002306
:10872000C3E0F9688A5A1F215405D00A0A40FF2184
:108730004A43F156A40E6943521A0021FF2A01DD73
:108740001112C9B2F1543969FF225443CA566A431F
:10875000A41A0022FF2C01DD2412E2B23C697969DF
:10876000E254FF225043CA566A43801A0022FF286F
:1087700001DD0012C2B27C69E254CBE7FD6B5A0006
:108780002989002918D0FC69A05A884214D10133E4
:10879000DBB2BC69A342F1D3C1E7C046140000209C
:1087A00016000020FFFF0000010001006209002008
:1087B000FF1E0000FF3E0000FD681F21AA5A54055D
:1087C000D00A0A40F156A40E4A4300211F2A01DDB7
:1087D0005211D1B2F1543969CA56544300223F2C88
:1087E00001DDA411E2B23C697D69E254EA565043CE
:1087F00000221F2801DD4011C2B27969CA54C6E7C0
:10880000FD6B5A002989002909D0FC69A05A8842C9
:1088100005D10133DBB2BC69A342F1D37FE7FD6828
:10882000AC5A1F22151CA5436005E10A2C1CF55605
:10883000800E551B6C43944206DDE517ED0E2C1996
:10884000621152421F32D2B23D69F254EC563F22BD
:10885000101A141B6043904207DDC417A40E2018A1
:1088600080114042021C3F32D2B27D693C69E85619
:10887000E2541F22511A101A4143914207DDC817D2
:10888000C00E4118491149420A1C1F32D2B27969FF
:10889000CA54BEE7FD6B5A002989002909D0FC693A
:1088A000A05A884205D10133DBB2BC69A342F1D39F
:1088B0000BE07D693C69E856E156C0024901411868
:1088C000F056FD684118A952EDE7BD68AD4601E0DC
:1088D000BC68A546BD4609B0F0BDC046F0B58DB038
:1088E0000290029D0191141C58780C22AA5E019EF0
:1088F00019788446964200DBE3E0029DEE8937B2A8
:10890000BC4200DBDDE0019840180590002800DC47
:10891000D7E00198051C6544002D00DCD1E0C81D9E
:10892000C010029D0490AD7A023303956546281964
:10893000039D012D7CD1002C05DAC0B28446049839
:1089400044431B1B002465466119B94202DD361BF6
:10895000F6B2B446019E059DF143C9173140CFB22E
:10896000954200DD151CEDB20695019D79B2491BBB
:10897000C817400F4018C0101B1807200140802066
:108980000841C1B201320791D10F8A18521092B238
:108990005443029E05927A08A418326900211219E4
:1089A00001920122BA430892474A507812780990FE
:1089B0000A920291029C644500D182E05A1C1C7804
:1089C0000092089D019A07990394381C069EB042B4
:1089D00023D2039E0E40002D08D0002E0FD0167813
:1089E0000F2434400A9E3443147008E0002E05D052
:1089F00014780F26B443099E3443147001320126C3
:108A00007540F14006D10099009C0978A4190391A2
:108A1000009480210130C0B2D8E7029A0199013256
:108A2000D2B20292059A049889181B180191C1E7E5
:108A300007221140049D0822521AEDB2D2B2C0B2F0
:108A40000695079109920A900A9E72B2944238D014
:108A5000019D1E1C05950027069D331CAF422DD29B
:108A600035787B1C0395DFB200250598E9B2C0B2CA
:108A7000069A04910918089049B2974207D1049BBD
:108A80000998834203D1079D691849B213E00398FE
:108A900043B2002B03DA0298221CFEF741FF039930
:108AA000049A4B000899DBB2013151180135039348
:108AB00049B2082DD9D101360591CDE7013464B210
:108AC000C2E70DB0F0BDC0466409002037B506AC62
:108AD000257807AC247800950194FEF7DBFF37BDBD
:108AE00070B5041C006900282FD0A37A002B1AD17E
:108AF000164A15882912EDB2A94208D10C22A35EAC
:108B00000E25625F5A43520007F07CF90BE0E589BD
:108B1000A189694389B29DB28D4204D216885D0055
:108B200046530133F7E7A37A012B0ED1074B206997
:108B300019785B7819430C22A35E0E25625F5343BC
:108B4000DA0FD3185A1007F05DF970BD64090020E0
:108B5000F0B5794D8BB02D6810AC2478002D2CD158
:108B60000C26855FA94200DBE3E00E26875F0497B1
:108B7000BA4200DBDDE0714E367803966643059617
:108B80008E19002E00DCD4E06D4E367866439719BE
:108B9000002F00DCCDE0022C0FD1877A012F0CD101
:108BA000002909DB002A07DB059C2F1BB94203DAE9
:108BB000049FBE1BB24204DB02240094FEF7EAFFCE
:108BC000B7E0604C2478002C03D1AF2B01D90133DE
:108BD000DBB25CB2002C01DA203BDBB200695A4EFA
:108BE00005900398594C84460120404201354F10AE
:108BF0008444C80743D47178367831436678247842
:108C00003443EE0F75196D10EDB26A436646D719FD
:108C1000F6B2059A06965E43D7190397039A6F003A
:108C2000049605970398131A4448DBB200789842DB
:108C30007FD90698834205D04548049E0068801974
:108C4000C05C00E00020131C00263D4F3F78B74277
:108C500013D9C70704D519705B1919705B1908E09F
:108C6000A14204D01C705B191C705B1901E0059FC8
:108C7000DB1901364008F6B2E7E70132D2E7717836
:108C800036780391E90F4D196D10E9B24A436046F9
:108C9000C0B206966678013D02905843D219EDB2F3
:108CA000059F24786B1CBA185B0004960794059204
:108CB00008900993059F2149D31B0978DBB299429B
:108CC00037D902998B4205D02149089C09680919B6
:108CD000C95C00E00021131C0020194E3678864242
:108CE00025D95E781F78B44664460F263440B743D2
:108CF000A446CE0704D5039C66462743069C06E09F
:108D0000039E049CA6420CD02743079C664626433C
:108D10005C1C1F705E7063195E701F7001335B19FD
:108D200001E0099E9B1901304908C0B2D5E7013224
:108D3000C0E70BB0F0BDC0465C0900205009002020
:108D40006109002066090020640900205209002002
:108D500058090020044B4160083303600B698360AD
:108D6000CB8B83817047C046080A010038B5036881
:108D7000041C5B699847051CA06800280AD0A389D9
:108D80009D4202D86368186117E00C4B984201D9E4
:108D900007F016F8281C07F009F8A060002805D095
:108DA00000212A1C07F02EF8A58103E06368D88112
:108DB0009881A0816368A4681C6138BDFFFFFF1F14
:108DC000054B4160083303600B698360CB8B838163
:108DD000024B083303607047080A0100E8090100EC
:108DE00010B5041CFFF7ECFF034B201C0833236075
:108DF000FFF7BCFF201C10BDC8090100F7B51E1C01
:108E000008AB1B7800920193431CDB7F041C0F1CF2
:108E1000002B22D18069002803D003685B68984743
:108E200001E0E0832061009B0025E381019BA78195
:108E300023772581E582142005F012FE211C071CF2
:108E400001F014FBA761381C311C01F01DFB034B22
:108E5000E577FC339B6B013BA377F7BDF005002062
:108E6000827A031C012A09D10C21425EDB8901327E
:108E7000D00F80184010584380B207E00020824293
:108E800004D19889DB895843400080B2704708B507
:108E90004068FFF7E5FF08BD70B54468051C201C5D
:108EA0000E1CFFF7DDFF4643AB689E19266170BDBF
:108EB00010B54468201CFFF7D3FF23691818206100
:108EC00010BD10B54468201CFFF7CAFFA38A5843A1
:108ED00010BD08B5421CD27F031C0020824202D183
:108EE000181C01F09BFB08BD08B5431CDB7F002B61
:108EF00001D101F0D7FB08BD08B5421CD27F031C8D
:108F00000020824202D1181C01F0F8FB08BD08B510
:108F1000431CDB7F002B02D18069FFF727FF08BDD0
:108F200030B5857A0C23C45E0369002D04D16243F9
:108F300089184900585A11E0601CC40F20184010CD
:108F40004243CD0F6D186D10AA1892B2C80702D413
:108F5000985C000902E0985C0F23184030BD0000C7
:108F600010B5838A041C002B0BD0012B29D0027F63
:108F7000002A26D0134A817FFC32926BD2B29142F2
:108F80001FD0104AFC32926BA277002B0BD1E18AE2
:108F900000220131E277A06999420CDB0368E2828A
:108FA0001B6998470DE0E27F217F0132D2B2E27760
:108FB0009142ECD905E003689B689847E38A013346
:108FC000E38210BDF005002010B5838A041C012B3C
:108FD0000ED0994201D3591E89B2A069E18203687B
:108FE000DB689847034BFC339B6BA3770023E37745
:108FF00010BDC046F0050020F7B51E1C08AB1F8849
:1090000009AB1B7800920193431CDB7F041C0D1CF1
:10901000002B23D18069002803D003685B68984740
:1090200001E0E08320610E4BA5812381009BA78294
:10903000E381019BA6722377102005F011FD211C0E
:10904000051CFFF7CDFE074B0021E177FC339B6B3E
:10905000A561013BA377201CFFF7B6FFF7BDC04613
:109060001FF8FFFFF005002038B5431CDB7F041C10
:109070000D1C002B39D18069002802D003685B6881
:10908000984720690023E383984204D0174B984205
:1090900001D906F095FE2B88291CA3816B880C3121
:1090A000E381AB88A382EB8823772A892281AB7A7C
:1090B000A372012B06D10F2A02D90023637201E0AB
:1090C000227263722161102005F0CAFC211C051C6C
:1090D000FFF776FE064B0021E177FC339B6BA56121
:1090E000013BA377201CFFF76FFF38BDFFFFFF1F79
:1090F000F005002038B50D1C00210A1C041CFEF7E9
:1091000063FF084B621C083323600023E382236162
:10911000A361E383201C291CD377FFF7A5FF201C44
:1091200038BDC046280A0100F0B585B001930AABEE
:109130001B888FB202930BAB1B7896B232B239B256
:10914000041C0393FEF740FF144B002508332360F3
:10915000631CE5822561A561E583DD77104BE6811F
:109160002381029BA781A382019B1020A372039BF2
:10917000237705F075FC211C061CFFF731FE094B17
:10918000E577FC339B6B201C013BA661A377291C70
:10919000FFF71AFF201C05B0F0BDC046280A0100E9
:1091A0001FF8FFFFF0050020F0B58DB00491059287
:1091B0001C1C9B7A051C012B00D093E0837A002BAA
:1091C00000D08FE0667A002E00D08BE0201CFFF7E5
:1091D000C7FEE789AA890897049F11B2A3898F4225
:1091E00000DD85E018B206903F18079700D57FE0B4
:1091F000EF890B973FB2BC46059F674578DC08981E
:1092000000B23F18099773D4049F002F0DDAB8B24B
:109210004642C318B6B29BB207961E1C1BB28B42C5
:1092200000DD161CB6B20A960AE00798884205DDF2
:10923000049F0796D21B92B20A9201E00A93079606
:10924000059E002E0CDA089FB1B24B42C91989B2B3
:109250000A1C09B29BB2614509DD0B98021C06E0AD
:1092600009990023614504DD0B9E059FF21B92B214
:109270000892069A079F0132D10F8A1852103FB206
:109280001EB20697131C73430B96069EFF0FBF1961
:109290007F100992DF190026089A13B29E4227DA3E
:1092A000049806990B9A4318059950180C216A5E88
:1092B00080195043181823692A69D9190D4B4000A9
:1092C00010181A680A9B03909BB20293079B012017
:1092D000034000930398029BFEF790F8099901362A
:1092E0007F18D9E7281C0499059A231CFEF71CFA5D
:1092F0000DB0F0BD1000002008B54369C91802F098
:109300006DFA08BD37B50C1C01F099FD01AD030ADB
:1093100028706B7000022368000EA870C1B21B6831
:10932000201C9847236869781B68201C984723688D
:1093300029781B68201C984737BD8B7A012B02D1F6
:109340000423037007E00B89002B02D1182303705C
:1093500001E0202303708B890381CB8982814381C3
:109360000023437070470000F0B50B1C1033161C2F
:10937000002289B082700C1C071C0021181C01936C
:1093800002F02CFA201C01F06FFD6A4B984200D0CD
:10939000CCE004210198FFF7AFFF201C01F06EFD27
:1093A0007860201C01F06AFDF870201C01F066FD59
:1093B0000290201C01F062FD3881B081201C01F078
:1093C0005DFD051E02DB00227A7002E001237B7046
:1093D0004542201C01F048FD012800D0A6E0201CD9
:1093E00001F042FDC0B23870042804D0182802D021
:1093F000202800D09AE0F189002908D07981281C22
:1094000009B206F027FC80B2B881B08204E00123E3
:109410007D81F581BB81B382201C01F02FFD3B785B
:10942000202B2DD1C31E5A425341DBB2002802D05B
:10943000002B02D17AE0002B26D001981421FFF7EF
:109440005BFF0025201C01F019FDC3B2002B0CD1DD
:10945000FF231B0218420AD1FF231B04184208D124
:10946000000E0323002807D004E0002302E00123BC
:1094700000E002237A1993730135042DE2D10BE049
:10948000002853D1042B11D00223BB730123FB739B
:1094900000233B7403237B740023B3723381F97878
:1094A000019802F09BF90123BB703FE00C21019869
:1094B000FFF722FF201C01F0E1FCC0B2031C1028C2
:1094C00000D910230299DBB20E310198039302F008
:1094D00085F93D1CEB1B039ADBB2934221D2236832
:1094E000201CDB68984723680290DB68201C9847A3
:1094F00023680490DB68201C984723680590DB688C
:10950000201C9847059A07AB1A70049A01355A70C7
:10951000029A9A70079801F081FCFDF78BFF68733F
:10952000D8E70123B37200237372B8E7381C09B07F
:10953000F0BDC046424D00008078704740687047DB
:1095400038B5101C0D1C141C0621103002F046F911
:10955000281C211C01F09AFC38BD02780389980070
:10956000042A03D11F304011800005E0182A03D1DE
:109570000322581C5043904370470000F0B54389C4
:10958000828985B05A430378051C0C1C0292042B77
:1095900003D00026202B01D103E0102628230093BE
:1095A00001E07C230093009BB700DF190E37FFB268
:1095B000EF70281CFFF7D1FF029B00214343FF18E7
:1095C0000397271C1037381C019302F007F9022279
:1095D0003F49381C02F06AFB0398211C01F056FC3D
:1095E0000020211C01F052FCE878211C01F04EFC07
:1095F0000098211C01F04AFC2889211C01F046FC3E
:109600000298211C01F042FC0120211C01F047FCC2
:109610002878211C01F043FC2B78202B04D1032057
:10962000211C01F033FC03E00020211C01F02EFC82
:109630000198211C01F02AFC0020211C01F026FCCD
:109640000020211C01F022FC301C211C01F01EFC1A
:10965000301C211C002E13D001F018FC00271D4BDC
:109660007A001B68211CD05AFFF74CFE2368201C8F
:109670001B68002101379847FBB2B342EFD301E0EA
:1096800001F004FC2B78202B1FD1FF200004211CAB
:1096900001F0FCFBFF200002211C01F0F7FBFF2082
:1096A000211C01F0F3FBFF200006211C01F0EEFB62
:1096B0000948211C01F0EAFB1025013D0020211C76
:1096C000EDB201F0E3FB002DF7D1019805B0F0BD3C
:1096D000800A01001000002042475273F0B58BB0A1
:1096E000171C041C02930491FFF737FF109D061C02
:1096F000291C10310591081C391C02F06FF82278E2
:109700002389042A3BD101335B10F61AF6B2039683
:10971000002663899E423BD261782289002906D0C7
:10972000013252107243049B9A18019207E0013BE8
:1097300001329B1B521053430499CB18019300270D
:10974000238901335B109F4212DA2B68281CDB68E7
:1097500098470F220240C0B200112018837BA21844
:10976000927B1B011343019AD3550137BFB2E7E740
:10977000059803990136FFF7BFFDB6B2C9E79A0015
:109780009B1AF618F6B20696002763899F4201D30A
:10979000029872E061782289002905D07A43049BFF
:1097A00052009A18039206E0013BDB1B5A430499CE
:1097B00052008A180392002201922289019923788B
:1097C0008A4251D90026182B12D12B68281CDB683D
:1097D00098472B6809AEB070DB68281C98472B6847
:1097E0007070DB68281C9847FF233070F3700CE022
:1097F000A3199B7B281C07932B680136DB689847CD
:10980000079909AB5854042EF2D109ABDA78802AB3
:109810001BD91A7808A90A705A78212169440A705C
:109820009B7822226A441370089801F0F7FA029B91
:10983000002B05D0984203D1181C013080B21CE0E7
:109840000199039A4B00985207E0029B002B09D024
:109850000199039A4B0002999952019B01339BB2E3
:109860000193AAE7012008E0202B03D00598069970
:10987000FFF742FD7B1C9FB287E70BB0F0BDF7B549
:10988000041C1E1C0D1C171CFFF767FE6389584340
:109890006378002B02D1A3895D1B013D4543089BE2
:1098A000E2780093AA18391C331C201CFFF716FF1E
:1098B000FEBDF0B51C1C87B0037805910492051C11
:1098C00007894689042B32D101377F10F9B20197FD
:1098D0000291FFF742FE029A013E801AF6B2C0B230
:1098E000049603900026049A971B7FB2002F64DB36
:1098F0000199059ACBB25F43D7193D1CEB1B029926
:10990000DBB28B4206D2236829781B68201C98475B
:109910000135F3E7039D002D07D02368201C1B6849
:109920000021013D9847EDB2F5E70136DBE7FFF78F
:1099300014FEBB00FF1AC719013EFFB2F6B2019731
:10994000029600270299CB1B5BB2002B35DB2A89DC
:10995000059953435B00CB18039300262A892B7883
:10996000B2421BD903997200505A182B03D1211C03
:10997000FFF7C8FC0FE0049A904204D10020211C9C
:1099800001F084FA07E0211CFFF7BCFC2368201CCF
:109990001B68FF2198470136F6B2DFE7182B0AD182
:1099A000019E002E07D02368201C1B680021013E69
:1099B0009847F6B2F5E70137C4E707B0F0BDF8B550
:1099C000041C161C1D1C0F1CFFF7C7FDA189069B5C
:1099D000CF1B6189013F79434143E27810338918F5
:1099E000181C01F0FBFE311C2A1C201C069BFFF7F3
:1099F00060FFF8BD13B56C460734211C012201F04D
:109A0000F9FD012801D1207801E00120404216BD76
:109A10000023037443744360FA239B008360014B6B
:109A200003607047C800010010B5041CFFF7F0FF89
:109A3000231C38330022201C1A7010BD38B5041CBA
:109A40000D1CFFF7E5FF6563201C38BD383000783A
:109A50007047406B401A43425841C0B27047000003
:109A600070B5061C0C1C151C012B05D90A68802139
:109A700019431268201C9047736B1B89002B07D079
:109A80009D4205D12368201C1B687F21984718E060
:109A90000C4B1A6800235800105AD9B2A84204D1BE
:109AA0002368201C1B6898470BE00133102BF2D170
:109AB000236880211B68201C9847281C211C01F06A
:109AC000EEF970BD10000020F8B50E1C10360C1C0D
:109AD000051C0021301C01F081FE2648211C01F0EC
